:100000000C94A4000C94CC000C94CC000C94CC0068
:100010000C94CC000C94CC000C94CC000C94CC0030
:100020000C94CC000C94CC000C94CC000C941D02CD
:100030000C94CC000C94CC000C94CC000C94CC0010
:100040000C94B60D0C94CC000C944A0A0C94910AB2
:100050000C94CC000C94CC000C94CC000C94CC00F0
:100060000C94CC000C94CC0007634236B79BD8A705
:100070001A39685618AEBAAB558C1D3CB7CC5763CD
:10008000BD6DEDFD753EF6177231BF000000803F7B
:1000900008000000BE922449123EABAAAA2ABECD97
:1000A000CCCC4C3E00000080BEABAAAAAA3E000009
:1000B0000000BF000000803F000000000008417801
:1000C000D3BB4387D1133D190E3CC3BD4282AD2B38
:1000D0003E68EC8276BED98FE1A93E4C80EFFFBE30
:1000E00001C4FF7F3F00000000000000000024006A
:1000F00027002A0000000000250028002B00000037
:10010000000023002600290004040404040404045D
:1001100002020202020203030303030301020408B2
:100120001020408001020408102001020408102061
:1001300000000007000201000003040600000000A8
:1001400000000000CB04F70B11241FBECFEFD8E056
:10015000DEBFCDBF11E0A0E0B1E0E2E7F7E202C010
:1001600005900D92AC35B107D9F712E0ACE5B1E0DE
:1001700001C01D92A936B107E1F711E0C8E4D1E052
:1001800004C02297FE010E94B313C434D107C9F7FB
:100190000E94A70D0C94B7130C940000FC018091F1
:1001A0005C018C3090F480838F5F80935C01815080
:1001B00090E0FC01EE0FFF1FE80FF91FE35AFE4F1E
:1001C00088EB9BE09283818308958FEF808308956D
:1001D000FC0120812C3008F041C08181992787FDE6
:1001E000909548E850E0481B590B440F551F440FA9
:1001F000551F6417750784F08281992787FD9095B4
:1002000048E552E0481B590B440F551F440F551F3A
:10021000641775070CF4AB0142505040CA01AA277D
:1002200097FDA095BA2F74E0880F991FAA1FBB1FD6
:100230007A95D1F763E0B695A795979587956A95D6
:10024000D1F74FB7F89430E0F901EE0FFF1FE20F3E
:10025000F31FE35AFE4F928381834FBF0895AF92FD
:10026000BF92CF92DF92EF92FF920F931F93CF93A3
:10027000DF93EC019B0182E0603278070CF048C00C
:1002800077FF03C020E030E005C0653B710514F046
:1002900024EB30E000D000D0B901882777FD8095AD
:1002A000982F2981332727FD3095E8E8AE2EB12C11
:1002B000A21AB30AAA0CBB1CAA0CBB1CCC24B7FC08
:1002C000C094DC2CEA81FF27E7FDF09528E532E0B9
:1002D0002E1B3F0B220F331F220F331F442737FDE6
:1002E0004095542FEDB7FEB7218332834383548367
:1002F00020E030E040E050E004EBE02EF12C012D56
:10030000112D0E945E0D9B010F900F900F900F908A
:10031000CE01B9010E94E800DF91CF911F910F91AA
:10032000FF90EF90DF90CF90BF90AF900895CF9265
:10033000DF92EF92FF921F93CF93DF93EC01162F82
:100340007A01690188818C3008F064C0862F61E0F1
:100350000E94BE0E888190E0FC01EE0FFF1FE80FA7
:10036000F91FE35AFE4F1F738081807C812B8083AD
:1003700080E292E08E199F0964E070E00E944D13C4
:10038000698380E699E08C199D0964E070E00E9421
:100390004D136A83A8818A2F6CE00E944113682F55
:1003A00070E0AB01440F551F460F571F440F551FF8
:1003B000440F551F20E030E0C901840F951FFC0158
:1003C000EE0FFF1FE80FF91FE35AFE4F808186FDF5
:1003D00015C02F5F3F4F2C30310571F724C01092AC
:1003E000800082E08093810010928500109284004A
:1003F000B19A80916F00826080936F008A2F90E0A5
:10040000FC01EE0FFF1FE80FF91FE35AFE4F80813A
:10041000806480838881DF91CF911F91FF90EF905E
:10042000DF90CF900895672BD1F2E8CF40E252E001
:1004300020E639E00E94970108951F920F920FB6AF
:100440000F9211242F933F934F935F936F937F935A
:100450008F939F93AF93BF93EF93FF93809181010D
:1004600087FF05C010928500109284002BC0209158
:100470008101332727FD309580915C0190E028179A
:10048000390704F580918101992787FD9095FC013A
:10049000EE0FFF1FE80FF91FE35AFE4F808186FF22
:1004A00011C080918101992787FD9095FC01EE0F85
:1004B000FF1FE80FF91FE35AFE4F80818F7360E042
:1004C0000E94FD0E809181018F5F809381012091B8
:1004D0008101332727FD309580915C0190E028173A
:1004E00039070CF04EC0809181018C300CF049C06E
:1004F000209184003091850080918101992787FDAA
:100500009095FC01EE0FFF1FE80FF91FE35AFE4F15
:1005100081819281280F391F3093890020938800B0
:1005200080918101992787FD9095FC01EE0FFF1FB7
:10053000E80FF91FE35AFE4F808186FF2BC08091A0
:100540008101992787FD9095FC01EE0FFF1FE80FB1
:10055000F91FE35AFE4F80818F7361E00E94FD0E08
:1005600019C080E49CE905C08091840090918500C9
:10057000049690938900809388008FEF8093810187
:1005800009C08091840090918500049680549C4914
:1005900040F3EACFFF91EF91BF91AF919F918F917F
:1005A0007F916F915F914F913F912F910F900FBE6F
:1005B0000F901F9018950F931F938C01FC0186815B
:1005C00060E00E94FD0E81E090E00E94570EF8016D
:1005D000868161E00E94FD0E81E090E00E94570E4E
:1005E000F801868160E00E94FD0E84E690E00E94A2
:1005F000570E1F910F910895CF92DF92EF92FF92C5
:100600000F931F93CF93DF93D82EC92E282F392F06
:10061000C9018C01C0E0D0E0E62EFF24F8018781FB
:1006200061E00E94BE0EB7010C2E02C07595679561
:100630000A94E2F76170F80187810E94FD0E21960D
:100640000F5F1F4FC830D10549F78D2D9C2D0E949B
:10065000DB02DF91CF911F910F91FF90EF90DF9020
:10066000CF900895CF92DF92EF92FF920F931F9356
:10067000CF93DF93D82EC92E282F392FC9018C0193
:10068000C0E0D0E0E62EFF24F801878161E00E94FF
:10069000BE0EB7010C2E02C0759567950A94E2F75D
:1006A0006170F80187810E94FD0E21960F5F1F4F38
:1006B000C430D10549F78D2D9C2D0E94DB02DF91BE
:1006C000CF911F910F91FF90EF90DF90CF90089501
:1006D0001F93CF93DF93EC01162F8C81642F0E9420
:1006E000FD0E8D818F3F19F060E00E94FD0E8F8519
:1006F00084FF05C0CE01612F0E94FC020EC0612F55
:1007000070E084E0759567958A95E1F7CE010E94C7
:100710003203CE01612F0E943203DF91CF911F91EE
:10072000089541E00E94680381E090E0089540E070
:100730000E9468030895FC016089862F8460808B85
:100740006C60CF010E9497030895DF93CF93CDB7DC
:10075000DEB728970FB6F894DEBF0FBECDBF9C0161
:10076000FE013196A4E4B1E088E00D900192815041
:10077000E1F7F9018389481710F0482F4150E42F21
:10078000F0E0EE0FFF1FEC0FFD1F8181680F606826
:10079000C9010E94970328960FB6F894DEBF0FBEDA
:1007A000CDBFCF91DF91089561E00E94970380ED66
:1007B00097E00E94570E0895CF93DF93EC014230EB
:1007C00018F08F8588608F874B8B1C8A222329F035
:1007D000413019F48F8584608F8780E593EC0E9407
:1007E000570E8C8160E00E94FD0E8E8160E00E94B9
:1007F000FD0E8D818F3F19F060E00E94FD0E6F8528
:1008000064FD1DC0CE0163E00E94320384E991E1E2
:100810000E94570ECE0163E00E94320384E991E109
:100820000E94570ECE0163E00E94320386E990E0F9
:100830000E94570ECE0162E00E94320316C0606231
:10084000CE010E94970384E991E10E94570E6F85C3
:100850006062CE010E94970386E990E00E94570EE5
:100860006F856062CE010E9497036F856062CE0142
:100870000E94970384E0888BCE010E949B03CE01E7
:100880000E94D40382E0898BCE0166E00E94970328
:10089000DF91CF9108956F927F928F92AF92CF9216
:1008A000EF920F931F93DF93CF93CDB7DEB73C0149
:1008B000162F842FF301448325830683E782C086A5
:1008C000A18682869D8593879E8594879F8595873F
:1008D0009889968761E00E94BE0EF30185818F3F63
:1008E00019F061E00E94BE0EF301868161E00E9472
:1008F000BE0E112319F0F301178603C080E1F30146
:100900008787C30160E141E020E00E94DC03CF91D2
:10091000DF911F910F91EF90CF90AF908F907F90CC
:100920006F9008958F92AF92CF92EF920F931F9393
:10093000CF93DF93DC01362F542F722F102FAE2C64
:100940008C2C13961C921E92129780E491E01196C3
:100950009C938E9300D000D0EDB7FEB73196CDB703
:10096000DEB71982118212821382CD0161E0432F1A
:100970002FEF052FE72EC12E0E944B040F900F90F2
:100980000F900F90DF91CF911F910F91EF90CF902B
:10099000AF908F900895CF92EF92FF920F931F9395
:1009A00082E891E06CE04BE025E004E053E0E52EC6
:1009B00032E0C32E0E94920487E991E00E94CE00AB
:1009C0008AE991E00E94CE00E0912B01F0912C0188
:1009D000F093A601E093A50100912F011091300141
:1009E0001093A8010093A70180912D0190912E01F1
:1009F0009093AA018093A901E0903101F090320117
:100A0000F092AC01E092AB018E0F9F1F62E070E0AC
:100A10000E944D139B017093AE016093AD01C7011D
:100A2000800F911F62E070E00E944D13CB01709324
:100A3000B0016093AF012E1B3F0B3093B2012093A6
:100A4000B101801B910B9093B4018093B3011F916E
:100A50000F91FF90EF90CF900895CF93DF93DB013C
:100A60000D900020E9F71197A61BB70BEC01E88168
:100A7000F9810280F381E02DAD010995DF91CF91DD
:100A800008954F925F926F927F928F929F92AF9252
:100A9000BF92CF92DF92EF92FF920F931F93CF936B
:100AA000DF934C013B012A01E90182E891E060E01B
:100AB00040E00E94A50382E891E060E071E00E94BE
:100AC0002D0582E891E060E041E00E94A50382E804
:100AD00091E060E071E00E942D0582E891E064E021
:100AE00040E00E94A50382E891E060E071E00E948E
:100AF0002D0582E891E064E041E00E94A50382E8D0
:100B000091E060E071E00E942D0582E891E068E0EC
:100B100040E00E94A50382E891E060E071E00E945D
:100B20002D0582E891E068E041E00E94A50382E89B
:100B300091E060E071E00E942D0582E891E06CE0B8
:100B400040E00E94A50382E891E060E071E00E942D
:100B50002D0582E891E06CE041E00E94A50382E867
:100B600091E060E071E00E942D0582E891E060E094
:100B700040E00E94A50382E891E0B4014AE050E021
:100B80000E94350D82E891E060E041E00E94A503FB
:100B900082E891E0B3014AE050E00E94350D82E81E
:100BA00091E064E040E00E94A50382E891E0B80192
:100BB0004AE050E00E94350D82E891E064E041E0B7
:100BC0000E94A50382E891E0B7014AE050E00E944C
:100BD000350D82E891E068E040E00E94A50382E8DC
:100BE00091E0B2014AE050E00E94350D82E891E0C8
:100BF00068E041E00E94A50387E2C031D80714F005
:100C0000CFEFDFEF82E891E0BE014AE050E00E94C2
:100C1000350D82E891E06CE040E00E94A50382E897
:100C200091E0B6014AE050E00E94350D82E891E083
:100C30006CE041E00E94A50382E891E0B5014AE042
:100C400050E00E94350DDF91CF911F910F91FF90E1
:100C5000EF90DF90CF90BF90AF909F908F907F905C
:100C60006F905F904F900895EF92FF920F931F93B4
:100C7000809129010E949C0EAA2797FDA095BA2F6A
:100C8000BC01CD010E94A8102EE230E940EA5BE3EE
:100C90000E9458117B018C012DEC3CEC4CE45EE38E
:100CA0000E94091088232CF460E070E080E89FEB3C
:100CB00012C0C801B70127E03FE548E95FEB0E9499
:100CC000BB119B01AC01CA01B90121EE3AEF41E72A
:100CD00052E40E9458110E947510CB011F910F9190
:100CE000FF90EF9008958091A1019091A20197FF4C
:100CF0000EC08091A5019091A60120913301309101
:100D00003401821B930B9093A2018093A1018091E7
:100D1000A3019091A40197FF0EC08091A70190912B
:100D2000A8012091350130913601821B930B9093DD
:100D3000A4018093A301609133017091340140912B
:100D4000A1015091A201460F571F5093A201409359
:100D5000A101E091A901F091AA014E175F0761F48A
:100D60002091A3013091A4018091AB019091AC013D
:100D70002817390759F4E3C04E175F073CF48091F8
:100D8000A5019091A6018417950744F0882799271B
:100D9000861B970B90933401809333016091A501DA
:100DA0007091A6014617570719F04E175F0721F5F6
:100DB000A0913501B09136012091A3013091A40199
:100DC0002A0F3B1F3093A4012093A3018091A70118
:100DD0009091A801821793073CF48091AB01909108
:100DE000AC012817390744F0882799278A1B9B0BE9
:100DF00090933601809335014617570724F470937A
:100E0000A2016093A1018091A1019091A201E81734
:100E1000F90724F4F093A201E093A1012091A70126
:100E20003091A8018091A3019091A40182179307AA
:100E300024F43093A4012093A3012091AB013091BD
:100E4000AC018091A3019091A4012817390724F4E3
:100E50003093A4012093A3016091A1017091A2019C
:100E600087E991E00E942F016091A3017091A40194
:100E70008AE991E00E942F01609137017091380159
:100E8000882777FD8095982F0E94FE0D6091A10123
:100E90007091A20181E492E04AE050E00E94350D99
:100EA00081E492E065E071E00E942D056091A3016C
:100EB0007091A40181E492E04AE050E00E94350D77
:100EC00081E492E067E071E00E942D056091A90144
:100ED0007091AA0181E492E04AE050E00E94350D51
:100EE00081E492E065E071E00E942D056091AB0124
:100EF0007091AC0181E492E04AE050E00E94350D2F
:100F000081E492E06CE071E00E944B0D2091A10120
:100F10003091A2018091A9019091AA012817390767
:100F200011F040E00DC040E02091A3013091A401F8
:100F30008091AB019091AC012817390709F441E089
:100F4000842F08959F92AF92BF92CF92DF92EF923B
:100F5000FF920F931F9387E00E94510F892B39F462
:100F600081E090E09093A00180939F011DC02091AB
:100F70009F013091A00121303105B1F41092A00100
:100F800010929F0180919D0190919E01A901481BA3
:100F9000590B50939E0140939D014115510521F439
:100FA00082E891E00E94D40380919D0190919E017E
:100FB000892B09F41AC28091B1019091B201029774
:100FC00034F48091B3019091B401029754F00E94DF
:100FD0007306982E0E943406AC011816190654F0B8
:100FE00024C010929E0110929D0182E891E00E941F
:100FF000D403FBC18091390190913A0148175907F8
:10100000A4F450933A01409339018091A101909149
:10101000A2019093B6018093B5018091A3019091B4
:10102000A4019093B8018093B7016091A3017091DE
:10103000A4012091390130913A010091B50110913C
:10104000B601E090B701F090B801C090B101D09026
:10105000B201A090B301B090B4018091A101909130
:10106000A2010E944105992009F4BFC181E492E0E8
:101070006DE071E00E94480D6091B5017091B6017C
:1010800081E492E04AE050E00E94350D81E492E074
:1010900065E071E00E942D056091B7017091B80183
:1010A00081E492E04AE050E00E94350D81E492E054
:1010B0006CE071E00E944B0D2091B5013091B601BA
:1010C000121613060CF03DC16091B7017091B80182
:1010D000161617060CF035C18091B1019091B2013E
:1010E0008230910594F0959587959093B201809305
:1010F000B1018091330190913401823091052CF03F
:10110000019790933401809333018091B3019091C2
:10111000B4018230910594F0959587959093B40130
:101120008093B30180913501909136018230910511
:101130002CF001979093360180933501809137010F
:101140009091380105969093380180933701409132
:10115000B1015091B2018091A5019091A601840F37
:10116000951F2817390724F49093B6018093B50191
:101170002091A9013091AA01241B350B8091B50162
:101180009091B6012817390724F43093B6012093C3
:10119000B5014091B3015091B4018091A7019091A4
:1011A000A801840F951F6817790724F49093B8015C
:1011B0008093B7012091AB013091AC01241B350B1A
:1011C0008091B7019091B8012817390724F4309322
:1011D000B8012093B70181E492E063E171E00E94DD
:1011E000480D6091B5017091B60181E492E04AE04A
:1011F00050E00E94350D81E492E065E071E00E94CC
:101200002D056091B7017091B80181E492E04AE048
:1012100050E00E94350D81E492E06CE071E00E94A4
:101220004B0D4091B5015091B6018091B101909163
:10123000B2019A01281B390B3093A6012093A50116
:10124000840F951F9093AA018093A9014091B70143
:101250005091B8018091B3019091B4019A01281B7B
:10126000390B3093A8012093A701840F951F909309
:10127000AC018093AB0181E492E067E171E00E94F0
:10128000480D6091A5017091A60181E492E04AE0C9
:1012900050E00E94350D81E492E065E071E00E942B
:1012A0002D056091A7017091A80181E492E04AE0C8
:1012B00050E00E94350D81E492E060E271E00E940E
:1012C000480D6091A9017091AA0181E492E04AE081
:1012D00050E00E94350D81E492E065E071E00E94EB
:1012E0002D056091AB017091AC0181E492E04AE080
:1012F00050E00E94350D81E492E064E271E00E94CA
:10130000480D6091B1017091B20181E492E04AE030
:1013100050E00E94350D81E492E065E071E00E94AA
:101320002D056091B3017091B40181E492E04AE02F
:1013300050E00E94350D81E492E067E271E00E9486
:101340004B0D80E197E290933A018093390110921E
:10135000B6011092B5011092B8011092B7018FEF4B
:101360009FEF9093A2018093A1019093A401809399
:10137000A30120912B0130912C018091A501909126
:10138000A6018217930724F43093A6012093A501A8
:1013900020912D0130912E018091A9019091AA01F7
:1013A0002817390724F43093AA012093A90120912A
:1013B0002F01309130018091A7019091A8018217EF
:1013C000930724F43093A8012093A70120913101C1
:1013D000309132018091AB019091AC01281739070F
:1013E00024F43093AC012093AB011F910F91FF9037
:1013F000EF90DF90CF90BF90AF909F9008950F93A4
:101400001F9381E492E040E855E260E070E00E94C2
:10141000CC0A87E060E00E94BE0E87E991E069E0B7
:1014200070E00E9416028AE991E06AE070E00E9492
:1014300016028FEF9FEF9093A2018093A1019093EA
:10144000A4018093A30110929E0110929D0110921D
:10145000A00110929F018091AD019091AE019093F7
:10146000B6018093B5018091AF019091B001909346
:10147000B8018093B70102E811E0C80160E142E0E1
:1014800020E00E94DC03C8010E94D4031F910F9149
:10149000089508951F920F920FB60F9211242F9363
:1014A0003F934F938F939F93EF93FF934091C60089
:1014B0002091F9013091FA012F5F3F4F2F73307067
:1014C0008091FB019091FC012817390759F0E091B8
:1014D000F901F091FA01E754FE4F40833093FA018D
:1014E0002093F901FF91EF919F918F914F913F913F
:1014F0002F910F900FBE0F901F901895E0914D0205
:10150000F0914E02E05CFF4F8191919120813181F9
:10151000821B930B8F739070892B11F00E94490AE4
:1015200008951F920F920FB60F9211242F933F939D
:101530008F939F93EF93FF9320913D0230913E0252
:1015400080913F02909140022817390731F4809131
:10155000C1008F7D8093C10014C0E0913F02F091E3
:101560004002E350FE4F208180913F029091400263
:1015700001968F7390709093400280933F02209366
:10158000C600FF91EF919F918F913F912F910F9006
:101590000FBE0F901F901895AF92BF92DF92EF92FF
:1015A000FF920F931F93CF93DF93EC017A018B018E
:1015B000DD24403081EE580780E0680780E078073E
:1015C00011F0DD24D39491E0A92EB12CEC89FD8992
:1015D000DD2069F0C5010E8C02C0880F991F0A94A6
:1015E000E2F7808360E079E08DE390E005C010824F
:1015F00060E874E88EE190E0A80197010E94601312
:10160000215030404040504056954795379527959A
:1016100080E12030380720F0DD2011F0DD24D6CF26
:10162000E889F9893083EA89FB892083EE89FF897B
:10163000408121E030E0C9010A8C02C0880F991F67
:101640000A94E2F7482B4083EE89FF894081C90163
:101650000B8C02C0880F991F0A94E2F7482B408335
:10166000EE89FF894081C9010C8C02C0880F991F47
:101670000A94E2F7482B4083EE89FF8980810D8C24
:1016800002C0220F331F0A94E2F7209528232083FB
:10169000DF91CF911F910F91FF90EF90DF90BF905E
:1016A000AF900895DC011C96ED91FC911D97E05CD4
:1016B000FF4F2191319180819181281B390B2F732C
:1016C0003070C9010895DC011C96ED91FC911D97C5
:1016D000E05CFF4F20813181E054F040DF01AE5BE0
:1016E000BF4F8D919C9111972817390719F42FEF4F
:1016F0003FEF07C08D919C91E80FF91F8081282F43
:1017000030E0C9010895DC011C96ED91FC911D9714
:10171000E05CFF4F20813181E054F040DF01AE5B9F
:10172000BF4F8D919C9111972817390719F42FEF0E
:101730003FEF10C08D919C911197E80FF91F208108
:101740008D919C91119701968F73907011969C9337
:101750008E9330E0C9010895FC0186859785DC01F0
:10176000A05CBF4FFC01EE5BFF4F2D913C911197A8
:101770008081918128173907C1F70895CF93DF93AE
:10178000EC01EE85FF85E05CFF4F20813181E05464
:10179000F0402F5F3F4F2F733070DF01AE5BBF4FC4
:1017A0008D919C91119728173907D1F3E05CFF4F79
:1017B00080819181E054F040E80FF91F6083EE854D
:1017C000FF85E05CFF4F31832083EE89FF89208114
:1017D00081E090E00D8C02C0880F991F0A94E2F717
:1017E000282B208381E090E0DF91CF910895109223
:1017F00044021092430288EE93E0A0E0B0E08093B0
:10180000450290934602A0934702B093480280E5B8
:1018100091E0909342028093410289EB91E0909392
:101820004E0280934D028DEF91E090935002809391
:101830004F0285EC90E0909352028093510284EC29
:1018400090E0909354028093530280EC90E0909348
:1018500056028093550281EC90E090935802809359
:10186000570286EC90E090935A028093590284E0EC
:1018700080935B0283E080935C0287E080935D024B
:1018800085E080935E0281E080935F020895CF92AD
:10189000DF92EF92FF920F931F93CF93DF937C0120
:1018A0006B018A01C0E0D0E00FC0D6016D916D01DF
:1018B000D701ED91FC910190F081E02DC7010995D0
:1018C000C80FD91F015010400115110571F7CE0145
:1018D000DF91CF911F910F91FF90EF90DF90CF900C
:1018E0000895EF92FF920F931F938C01DC01ED910D
:1018F000FC910190F081E02D6DE009957C01D8010B
:10190000ED91FC910190F081E02DC8016AE009950C
:101910009C012E0D3F1DC9011F910F91FF90EF906B
:1019200008954F925F927F928F929F92AF92BF9253
:10193000CF92DF92EF92FF920F931F93DF93CF939B
:10194000CDB7DEB7A1970FB6F894DEBF0FBECDBFFF
:101950002C01742ECB01223008F42AE019A231E2C6
:10196000C32ED12CCC0EDD1E822E9924AA24BB249A
:10197000672D752FA50194010E94601379018A01DA
:10198000C801B701A50194010E942213472D461BEF
:101990000894C108D1084A3014F4405D01C0495C84
:1019A000F6014083E114F1040105110521F07E2CBC
:1019B0005F2DC801DDCFC201B6010E942D05A196A1
:1019C0000FB6F894DEBF0FBECDBFCF91DF911F9150
:1019D0000F91FF90EF90DF90CF90BF90AF909F90CE
:1019E0008F907F905F904F900895CF92DF92EF920B
:1019F000FF920F931F93CF93DF93EC016A017B015A
:101A00002115310541F4E881F9810190F081E02D43
:101A1000642F09951FC02A303105D1F477FF17C014
:101A2000E881F9810190F081E02D6DE209958C014A
:101A300044275527BA014C195D096E097F09CE016B
:101A40002AE00E94910C9801280F391F04C02AE057
:101A50000E94910C9C01C901DF91CF911F910F91C0
:101A6000FF90EF90DF90CF900895EF92FF920F9349
:101A70001F937B019A010027F7FC0095102FB801F6
:101A8000A7010E94F50C1F910F91FF90EF90089510
:101A90000E942D050895EF92FF920F931F937C01F2
:101AA0000E942D058C01C7010E94710C080F191F9F
:101AB000C8011F910F91FF90EF9008952F923F92D0
:101AC0004F925F926F927F928F929F92AF92BF924E
:101AD000CF92DF92EF92FF920F931F93DF93CF93FA
:101AE000CDB7DEB73B014C0119012A016D897E8912
:101AF0008F89988D6A197B098C099D09621A730A6E
:101B0000840A950AA40193010E942213E218F308A3
:101B100004091509A80197010E9482132A0D3B1D93
:101B20004C1D5D1DB901CA01CF91DF911F910F912D
:101B3000FF90EF90DF90CF90BF90AF909F908F90ED
:101B40007F906F905F904F903F902F900895CF932C
:101B5000DF930E94610E0E94FF09CEE7DAE00E9447
:101B6000A2072097E1F30E947E0AF9CF1F920F92FD
:101B70000FB60F9211242F933F938F939F93AF93A0
:101B8000BF938091640290916502A0916602B0912A
:101B90006702309168020196A11DB11D232F2D5FB0
:101BA0002D3720F02D570196A11DB11D20936802FD
:101BB0008093640290936502A0936602B0936702DB
:101BC0008091600290916102A0916202B0916302E3
:101BD0000196A11DB11D8093600290936102A093B4
:101BE0006202B0936302BF91AF919F918F913F9139
:101BF0002F910F900FBE0F901F9018959B01AC0175
:101C00007FB7F8948091600290916102A091620286
:101C1000B091630266B5A89B05C06F3F19F00196AD
:101C2000A11DB11D7FBFBA2FA92F982F8827860F1E
:101C3000911DA11DB11D62E0880F991FAA1FBB1F36
:101C40006A95D1F7BC012DC0FFB7F894809160026E
:101C500090916102A0916202B0916302E6B5A89BE7
:101C600005C0EF3F19F00196A11DB11DFFBFBA2FAE
:101C7000A92F982F88278E0F911DA11DB11DE2E07D
:101C8000880F991FAA1FBB1FEA95D1F7861B970BD8
:101C9000885E9340C8F22150304040405040685127
:101CA0007C4F211531054105510571F608950197C5
:101CB00039F0880F991F880F991F02970197F1F744
:101CC0000895789484B5826084BD84B5816084BDB4
:101CD00085B5826085BD85B5816085BDEEE6F0E0A5
:101CE000808181608083E1E8F0E010828081826001
:101CF0008083808181608083E0E8F0E08081816082
:101D00008083E1EBF0E0808184608083E0EBF0E0B1
:101D1000808181608083EAE7F0E080818460808355
:101D200080818260808380818160808380818068FF
:101D300080831092C1000895982F8E3008F09E5035
:101D4000977080913B018295880F880F807C892B4A
:101D500080937C0080917A00806480937A008091E7
:101D60007A0086FDFCCF2091780040917900942F75
:101D700080E030E0282B392BC9010895CF93DF9301
:101D8000482F50E0CA01845E9E4FFC013491485FA9
:101D90005E4FFA018491882369F190E0880F991FC2
:101DA000FC01E651FF4FA591B491FC01EC50FF4FAF
:101DB000C591D491662351F42FB7F8948C91932F49
:101DC000909589238C93888189230BC0623061F4BC
:101DD0002FB7F8948C91932F909589238C938881B9
:101DE000832B88832FBF06C09FB7F8948C91832BD9
:101DF0008C939FBFDF91CF910895482F50E0CA0187
:101E0000805D9E4FFC012491CA01845E9E4FFC01BF
:101E10009491485F5E4FFA013491332309F440C036
:101E2000222351F1233071F0243028F42130A1F025
:101E3000223011F514C02630B1F02730C1F0243023
:101E4000D9F404C0809180008F7703C08091800016
:101E50008F7D8093800010C084B58F7702C084B5D9
:101E60008F7D84BD09C08091B0008F7703C08091C1
:101E7000B0008F7D8093B000E32FF0E0EE0FFF1FE6
:101E8000EC50FF4FA591B4912FB7F894662321F43D
:101E90008C919095892302C08C91892B8C932FBFB4
:101EA0000895682F70E0CB01805D9E4FFC01249166
:101EB000CB01845E9E4FFC014491685F7E4FFB0125
:101EC0009491992319F420E030E03CC0222351F191
:101ED000233071F0243028F42130A1F0223011F5A4
:101EE00014C02630B1F02730C1F02430D9F404C03A
:101EF000809180008F7703C0809180008F7D8093D8
:101F0000800010C084B58F7702C084B58F7D84BDFA
:101F100009C08091B0008F7703C08091B0008F7DA1
:101F20008093B000892F90E0880F991F82509F4FB7
:101F3000FC01A591B4918C9120E030E0842311F054
:101F400021E030E0C90108955058BB27AA270ED0E0
:101F500075C166D130F06BD120F031F49F3F11F4A0
:101F60001EF45BC10EF4E095E7FB51C1E92F77D178
:101F700080F3BA17620773078407950718F071F4A6
:101F80009EF58FC10EF4E0950B2EBA2FA02D0B01FC
:101F9000B90190010C01CA01A0011124FF27591BAE
:101FA00099F0593F50F4503E68F11A16F040A22FB4
:101FB000232F342F4427585FF3CF46953795279525
:101FC000A795F0405395C9F77EF41F16BA0B620B24
:101FD000730B840BBAF09150A1F0FF0FBB1F661F6B
:101FE000771F881FC2F70EC0BA0F621F731F841FAE
:101FF00048F4879577956795B795F7959E3F08F0D4
:10200000B3CF9395880F08F09927EE0F9795879592
:102010000895D9D008F481E008950CD00FC107D1FC
:1020200040F0FED030F021F45F3F19F0F0C05111C4
:1020300039C1F3C014D198F39923C9F35523B1F3EF
:10204000951B550BBB27AA2762177307840738F027
:102050009F5F5F4F220F331F441FAA1FA9F333D086
:102060000E2E3AF0E0E830D091505040E695001C3A
:10207000CAF729D0FE2F27D0660F771F881FBB1FF6
:10208000261737074807AB07B0E809F0BB0B802DD0
:10209000BF01FF2793585F4F2AF09E3F510568F01C
:1020A000B6C000C15F3FECF3983EDCF386957795B0
:1020B0006795B795F7959F5FC9F7880F911D96951E
:1020C000879597F90895E1E0660F771F881FBB1F7A
:1020D000621773078407BA0720F0621B730B840B27
:1020E000BA0BEE1F88F7E095089504D06894B111FB
:1020F000D9C00895BCD088F09F5790F0B92F992788
:10210000B751A0F0D1F0660F771F881F991F1AF002
:10211000BA95C9F712C0B13081F0C3D0B1E00895CB
:10212000C0C0672F782F8827B85F39F0B93FCCF34C
:10213000869577956795B395D9F73EF490958095F8
:10214000709561957F4F8F4F9F4F0895E89409C018
:1021500097FB3EF490958095709561957F4F8F4FDA
:102160009F4F9923A9F0F92F96E9BB279395F695F0
:10217000879577956795B795F111F8CFFAF4BB0F6E
:1021800011F460FF1BC06F5F7F4F8F4F9F4F16C0D2
:10219000882311F096E911C0772321F09EE8872F5C
:1021A000762F05C0662371F096E8862F70E060E018
:1021B0002AF09A95660F771F881FDAF7880F969591
:1021C000879597F90895990F0008550FAA0BE0E835
:1021D000FEEF16161706E807F907C0F012161306E9
:1021E000E407F50798F0621B730B840B950B39F429
:1021F0000A2661F0232B242B252B21F408950A268F
:1022000009F4A140A6958FEF811D811D089597F9CE
:102210009F6780E870E060E008959FEF80EC08958C
:1022200000240A94161617061806090608950024B5
:102230000A9412161306140605060895092E03942F
:10224000000C11F4882352F0BB0F40F4BF2B11F4A3
:1022500060FF04C06F5F7F4F8F4F9F4F089557FD02
:102260009058440F551F59F05F3F71F04795880F04
:1022700097FB991F61F09F3F79F08795089512169B
:1022800013061406551FF2CF4695F1DF08C0161647
:1022900017061806991FF1CF8695710561050894F8
:1022A0000895E894BB2766277727CB0197F908950F
:1022B0000BD0C4CFB5DF28F0BADF18F0952309F0B2
:1022C000A6CFABCF1124EECFCADFA0F3959FD1F3F9
:1022D000950F50E0551F629FF001729FBB27F00DD4
:1022E000B11D639FAA27F00DB11DAA1F649F662729
:1022F000B00DA11D661F829F2227B00DA11D621F78
:10230000739FB00DA11D621F839FA00D611D221F31
:10231000749F3327A00D611D231F849F600D211D15
:10232000822F762F6A2F11249F5750408AF0E1F0B8
:1023300088234AF0EE0FFF1FBB1F661F771F881F01
:1023400091505040A9F79E3F510570F060CFAACF41
:102350005F3FECF3983EDCF3869577956795B795EC
:10236000F795E7959F5FC1F7FE2B880F911D969516
:10237000879597F90895FA01EE0FFF1F3096210512
:10238000310599F16115710561F48038BFE39B0750
:1023900049F168949038810561F08038BFEF9B0760
:1023A00041F0992342F5FF3FE1053105210511F187
:1023B000E8940894E795D901AA2329F4AB2FBE2FFE
:1023C000F85FD0F310C0FF5F70F4A695E0F7F7391F
:1023D00050F019F0FF3A38F49F779F930CD00F908C
:1023E00007FC905808953EF018CF60E070E080E858
:1023F0009FE308954FE79F775F934F933F932F930A
:102400009ED02F913F914F915F9152DF05C019F4FB
:102410000EF0FDCE46CF01CF2ADFC8F39638C0F7C5
:1024200007F80F92E8942BE33AEA48EB5FE74EDFB8
:102430000F920F920F924DB75EB70F92C0D0E8E6A1
:10244000F0E016D04F915F91EF91FF91E595EE1F6F
:10245000FF1F49F0FE57E0684427EE0F441FFA952E
:10246000E1F74195550B32D00F9007FE26C0089535
:10247000DF93CF931F930F93FF92EF92DF927B0135
:102480008C01689405C0DA2EEF011EDFFE01E8948E
:10249000A5912591359145915591AEF3EF0166DDFA
:1024A000FE019701A801DA9479F7DF90EF90FF9091
:1024B0000F911F91CF91DF9108959B01AC0160E0D6
:1024C00070E080E89FE3A9CDA2CEACC0D0DEE8F3F7
:1024D0009923D9F3940F511DBBF39150504094F0C0
:1024E00059F0882332F0660F771F881F91505040B3
:1024F000C1F79E3F510544F7880F911D969587952A
:1025000097F908955F3FACF0983E9CF0BB27869505
:1025100077956795B79508F4B1609395C1F7BB0FB0
:1025200058F711F460FFE8CF6F5F7F4F8F4F9F4FD9
:10253000E3CFB8CE0EF076C070CE689468CE97DE4A
:10254000C8F39923D1F3C6F3DF93CF931F930F936F
:10255000FF92C92FDD2788232AF02197660F771F66
:10256000881FDAF720E030E040E85FEB9FE388392E
:1025700020F0803E30F021968F77E7DCE0E9F0E054
:1025800003C0E3DCEDEBF0E073DF8B01BE01EC0197
:10259000FB2E6F5771097595771F880B990BD8DD46
:1025A00028E132E741E35FE38FDEAF2D9801AE0112
:1025B000FF900F911F91CF91DF91D8DC3FCEFA01B0
:1025C000DC01AA0FBB1F9B01AC01BF5728F42227D7
:1025D0003327442750781FC0B75188F4AB2F00240D
:1025E000469537952795011CA395D2F3002069F0F5
:1025F000220F331F441FB395DAF30DD0A5CC613001
:102600007105A0E88A07B94630F49B01AC01662742
:10261000772788279078309621F020833183428372
:10262000538308959F3F49F0915028F486957795FC
:102630006795B7959F5F80389F4F880F96958795D0
:1026400097F90895629FD001739FF001829FE00D7A
:10265000F11D649FE00DF11D929FF00D839FF00D21
:10266000749FF00D659FF00D9927729FB00DE11DCD
:10267000F91F639FB00DE11DF91FBD01CF011124AA
:102680000895991B79E004C0991F961708F0961BCE
:10269000881F7A95C9F78095089597FB092E07261C
:1026A0000AD077FD04D049D006D000201AF47095E6
:1026B00061957F4F0895F6F7909581959F4F089506
:1026C000A1E21A2EAA1BBB1BFD010DC0AA1FBB1F36
:1026D000EE1FFF1FA217B307E407F50720F0A21BA8
:1026E000B30BE40BF50B661F771F881F991F1A9415
:1026F00069F760957095809590959B01AC01BD013F
:10270000CF01089597FB092E05260ED057FD04D062
:10271000D7DF0AD0001C38F45095409530952195AC
:102720003F4F4F4F5F4F0895F6F790958095709506
:1027300061957F4F8F4F9F4F0895AA1BBB1B51E19F
:1027400007C0AA1FBB1FA617B70710F0A61BB70B21
:10275000881F991F5A95A9F780959095BC01CD01C6
:102760000895EE0FFF1F0590F491E02D0994F89461
:02277000FFCF99
:1027720020202020002C00202D3E2000004E6561EC
:102782007220002D3E20004E657720626F78200077
:10279200202D200020280029000E001E0096003265
:1027A200006400010005000F001027010000000076
:1027B2009103470C00004000140054000000000088
:0C27C200BE0B470C520B830B630BAC0BDF
:00000001FF
